:060000000A128A110C280F
:10000800FE00030EF6000A08F7000A128A11DD281E
:100018000A128A110F28F001F101F201F301F4012B
:10002800F50183010A128A11A728F800083078061A
:10003800031D1F2820282528831603130F168F1643
:100048000F1704307806031D2A282B28302883161A
:1000580003130F128F160F1702307806031D352869
:1000680036283B28831603130F168F120F177803B1
:10007800031D3F2840284528831603130F128F12AB
:100088000F17831603130F1408008316031788012C
:10009800890183160313850186018801890183126A
:1000A800031385018801890186018316031307114B
:1000B8008312031307158316031387108312031380
:1000C80087148316031307108312031307080430D9
:1000D8000A128A1119200A128A1100300A128A118A
:1000E80078200A128A110800F80083120313941268
:1000F800941683160313871207160630780203181E
:100108008628872890280430780203188C288D28A0
:100118008F2887119028871504307806031D9528A5
:1001280096289728851283120313140878049400DC
:10013800831603138C1183120313141283160313EB
:100148001417941308000A128A1149200A128A11F6
:10015800F501831203130711C730F900B328F90B0F
:10016800B228B628B72801300A128A11E4200A12E8
:100178008A110A128A11D3200A128A1183120313D0
:100188008600C730F900C828F90BC728CB28CC2827
:10019800831203130715AD280A128A110C28831637
:1001A8000313141CD828D928D3288312031313083F
:1001B800080077088A00760E8300FE0E7E0E09007E
:0C01C800F800780883120313930008006D
:04400E00D420FF3F7C
:00000001FF
