:060000000A128A110C280F
:10000800FE00030EF0000A08F1000A128A110E2CF5
:100018000A128A110F28FA01FB0183120313AE0199
:10002800AF01B001B101B20183010A128A111C2883
:100038000A128A1168230A128A110A128A114321A4
:100048000A128A110A128A11B6230A128A11F401B5
:1000580001300A128A114A220A128A111F300A1222
:100068008A1190230A128A11023083120313AB00FB
:100078002B08F40002300A128A114A220A128A1145
:1000880012300A128A1190230A128A111A30831226
:100098000313AD005E30AC006D30AB00AB0B5228E3
:1000A800AC0B5228AD0B522859280A128A11B623D4
:1000B8000A128A11F40101300A128A114A220A121C
:1000C8008A1101300A128A1190230A128A118312A6
:1000D80003130711C73083120313AB007328AB0B4C
:1000E800722876280A128A11FE230A128A118312AC
:1000F8000313AB002B08FA00C73083120313AB00BD
:100108008528AB0B842888288312031307157B30B6
:10011800AB002B08F9007A080A128A11FA210A1290
:100128008A117B080A128A11D0220A128A118312B4
:100138000313AB002B08B2007C080A128A11D022E4
:100148000A128A1183120313AB002B08B1007D0831
:100158000A128A11D0220A128A1183120313AB00E1
:100168002B08B000F401F40A02300A128A114A225C
:100178000A128A118312031332080A128A11E6231B
:100188000A128A118312031331080A128A11E6230C
:100198000A128A118312031330080A128A11E623FD
:1001A8000A128A115E280A128A110C288312031374
:1001B800A101F31FE028E128E828F209F309F20A6F
:1001C8000319F30AA101A10AF51FEB28EC28F52869
:1001D800F409F509F40A0319F50A0130F60076085E
:1001E800A106A201A301720873040319FC28FD28C3
:1001F8003429A001A00A0B2901300310F20DF30DD8
:10020800FF3E031D01290130F6007608A007F31F01
:100218000E290F29002901300310A20DA30DFF3E5E
:10022800031D102973087502031D1C297208740226
:10023800031C1F29202927297208F4027308031CAC
:10024800F503F502221401300310F30CF20CFF3E03
:10025800031D28290130A002031D332934290F2941
:1002680021080319382939293E29A209A309A20A14
:100278000319A30A2308F3002208F20008008312D6
:100288000313871308121330F5002D30F400F40B14
:100298004B29F50B4B2930300A128A118D220A128C
:1002A8008A110630F5003030F400F40B5929F50BAB
:1002B8005929000030300A128A118D220A128A1137
:1002C8002130F400F40B662930300A128A118D228D
:1002D8000A128A112130F400F40B702938300A12FE
:1002E8008A118D220A128A112130F400F40B7A291E
:1002F80008300A128A118D220A128A112130F4005C
:10030800F40B842901300A128A118D220A128A11EB
:100318002130F400F40B8E2906300A128A118D223E
:100328000A128A112130F400F40B98290C300A12B1
:100338008A118D220A128A110800F801F51FA529D1
:10034800A629AD29F409F509F40A0319F50AF801F3
:10035800F80AF31FB029B129B629F209F309F20AFC
:100368000319F30A720873040319BB29BC29EB2982
:10037800F701F70ACA2901300310F20DF30DFF3E09
:10038800031DC0290130F6007608F707F31FCD29B1
:10039800CE29BF2973087502031DD4297208740277
:1003A800031CD729D829DE297208F4027308031C14
:1003B800F503F50201300310F30CF20CFF3E031DA8
:1003C800DF290130F702031DEA29EB29CE29780835
:1003D8000319EF29F029F529F409F509F40A031995
:1003E800F50A7508F3007408F20008008312031375
:1003F800A800A901AA010A30F2000030F300831214
:1004080003132808A400A5012408F4002508F50012
:100418000A128A11A1210A128A117208831203137F
:10042800A60029087907A700270884002608800065
:100438000A30F2000030F30029087907A4002408E4
:10044800840000082802F400F501031CF5030A12D1
:100458008A11DA200A128A11720883120313A5007E
:100468002508A8000130A9070318AA0A0030AA071E
:100478002A08803AFF0080307F02031D452A033096
:100488002902031C482A492AFF290800F700831279
:100498000313871308127703031D532A542A5B2A70
:1004A80080300A128A118D220A128A11672A0230B4
:1004B8007706031D602A612A672AC0300A128A114A
:1004C8008D220A128A113430F600F130F500F50B4E
:1004D8006B2AF60B6B2A702A74080319742A752A7A
:1004E8008C2A7E2A14300A128A118D220A128A1145
:1004F8000130F4027408031D822A832A762A3430D4
:10050800F600F130F500F50B872AF60B872A8C2ABE
:100518000800F300731C912A922A962A8312031367
:100528000817992A831203130813F31C9C2A9D2A7F
:100538009F2A8817A02A8813731DA32AA42AA62AEB
:100548000614A72A0610F31DAA2AAB2AAD2A861478
:10055800AE2A8610731EB12AB22AB42A0615B52A05
:100568000611F31EB82AB92ABB2A8615BC2A861199
:10057800731FBF2AC02AC22A0616C32A0612F31FEF
:10058800C62AC72AC92A8616CA2A86120A128A11B0
:10059800F2230A128A110800F400E62A30300E2BE2
:1005A80031300E2B32300E2B33300E2B34300E2BD5
:1005B80035300E2B36300E2B37300E2B38300E2BB5
:1005C80039300E2B7408F200F3017308003A03194E
:1005D800EE2A0E2B7208003A0319D22A013A03199F
:1005E800D42A033A0319D62A013A0319D82A073A12
:1005F8000319DA2A013A0319DC2A033A0319DE2A15
:10060800013A0319E02A0F3A0319E22A013A0319B9
:10061800E42A0E2B0800F20008307206031D152B81
:10062800162B1B2B831603130F168F160F17043068
:100638007206031D202B212B262B831603130F1262
:100648008F160F1702307206031D2B2B2C2B312B04
:10065800831603130F168F120F177203031D352B02
:10066800362B3B2B831603130F128F120F1783168B
:1006780003130F14080003308A000408840A820751
:100688000034533431343A34203420342034203484
:10069800533432343A34203420342034533433340D
:1006A8003A3400344A346F34733465342034533464
:1006B80061346E34743469347A346F3400344834B5
:1006C8006F346C3461340034831603178801890150
:1006D8008316031385018601870188018901831226
:1006E8000313850188018701890186018316031395
:1006F800071183120313071504300A128A110F23F6
:100708000A128A11F201F301F40120300A128A1147
:10071800D0230A128A110800F600831203138717E0
:100728000812F501A82B7508760784000A128A11A9
:100738003F230A128A110A128A118D220A128A117B
:100748000130F4007408F5077508760784000A126A
:100758008A113F230A128A11003A031DB42BB52BC4
:10076800972B0800831203138713081201300A120B
:100778008A118D220A128A110D30F500FB30F4001F
:10078800F40BC42BF50BC42BC92B02300A128A11A7
:100798008D220A128A110800F500831603138712A6
:1007A800751DD72BD82BDC2B740894008715E02BEC
:1007B8007208740494008711750873048312031374
:1007C80094000800F40083120313871708127408B2
:1007D8000A128A118D220A128A1108008312031341
:1007E8008816A630F200F20BF72B000083120313D1
:1007F800881208000A128A1107240A128A11831221
:1008080003131308080083160313141C0C2C0D2C57
:10081800072C080071088A00700E8300FE0E7E0EF9
:020828000900C5
:04400E00D420FF3F7C
:00000001FF
