:060000000A128A110C280F
:10000800FE00030EF0000A08F1000A128A113A2CC9
:100018000A128A110F28FA01FB0183120313AC019B
:10002800AD01AE01AF01B001B101B20183010A1205
:100038008A111E280A128A11A1200A128A11831213
:100048000313B201F40101300A128A1185220A123F
:100058008A1101300A128A11D6230A128A118312D0
:1000680003130711023083120313AB00AB0B3A28BA
:10007800000001300A128A1141240A128A110A1258
:100088008A1130240A128A11831203138500023060
:1000980083120313AB00AB0B4F280000831203132A
:1000A80007157B30AB002B08F90005080A128A11E6
:1000B80035220A128A117D080A128A110B230A12A4
:1000C8008A1183120313AB002B08FA007C080A126A
:1000D8008A110B230A128A1183120313AB002B080F
:1000E800AF007B080A128A110B230A128A118312A5
:1000F8000313AB002B08AE00F40102300A128A1178
:1001080085220A128A117A080A128A1124240A12EC
:100118008A11831203132F080A128A1124240A123F
:100128008A11831203132E080A128A1124240A1230
:100138008A1126280A128A110C28831603178801A7
:1001480089018316031385018601880189018312B9
:10015800031385018801890186018701831603132A
:1001680007118312031307158316031387108312CD
:10017800031387148316031307108312031307143A
:1001880004300A128A117D230A128A1100300A12D9
:100198008A114A230A128A110A128A1177210A122D
:1001A8008A110A128A11FC230A128A11F4010130F9
:1001B8000A128A1185220A128A111F300A128A111C
:1001C800D6230A128A11023083120313A0002008D2
:1001D800F40002300A128A1185220A128A1112309A
:1001E8000A128A11D6230A128A111A3083120313AB
:1001F800A2005E30A1006D30A000A00B0129A10B68
:100208000129A20B012908290A128A11FC230A12C2
:100218008A11080083120313A101F31F1429152959
:100228001C29F209F309F20A0319F30AA101A10A28
:10023800F51F1F2920292929F409F509F40A0319AA
:10024800F50A0130F6007608A106A201A30172089A
:1002580073040319302931296829A001A00A3F290C
:1002680001300310F20DF30DFF3E031D3529013057
:10027800F6007608A007F31F4229432934290130E4
:100288000310A20DA30DFF3E031D44297308750238
:10029800031D502972087402031C532954295B2931
:1002A8007208F4027308031CF503F50222140130E6
:1002B8000310F30CF20CFF3E031D5C290130A00271
:1002C800031D672968294329210803196C296D2909
:1002D8007229A209A309A20A0319A30A2308F30091
:1002E8002208F2000800831203138811081225302F
:1002F800F5005B30F400F40B7F29F50B7F29842986
:1003080030300A128A11C8220A128A110B30F500FD
:100318006230F400F40B8E29F50B8E290000303082
:100328000A128A11C8220A128A114230F400F40B08
:100338009B29000030300A128A11C8220A128A1139
:100348004230F400F40BA629000038300A128A1152
:10035800C8220A128A114230F400F40BB1290000B5
:1003680008300A128A11C8220A128A114230F4008F
:10037800F40BBC29000001300A128A11C8220A12A3
:100388008A114230F400F40BC729000006300A1223
:100398008A11C8220A128A114230F400F40BD229B9
:1003A80000000C300A128A11C8220A128A110800A9
:1003B800F801F51FE029E129E829F409F509F40A0B
:1003C8000319F50AF801F80AF31FEB29EC29F129BA
:1003D800F209F309F20A0319F30A720873040319FC
:1003E800F629F729262AF701F70A052A013003100A
:1003F800F20DF30DFF3E031DFB290130F6007608D0
:10040800F707F31F082A092AFA2973087502031D3A
:100418000F2A72087402031C122A132A192A720856
:10042800F4027308031CF503F50201300310F30C02
:10043800F20CFF3E031D1A2A0130F702031D252A7C
:10044800262A092A780803192A2A2B2A302AF40985
:10045800F509F40A0319F50A7508F3007408F2009F
:10046800080083120313A800A901AA010A30F200A8
:100478000030F300831203132808A400A501240800
:10048800F4002508F5000A128A11DC210A128A11E3
:10049800720883120313A60029087907A700270802
:1004A8008400260880000A30F2000030F300290892
:1004B8007907A4002408840000082802F400F50144
:1004C800031CF5030A128A110E210A128A117208F6
:1004D80083120313A5002508A8000130A9070318F3
:1004E800AA0A0030AA072A08803AFF0080307F0253
:1004F800031D802A03302902031C832A842A3A2AEE
:100508000800F70083120313881108127703031DEC
:100518008E2A8F2A962A80300A128A11C8220A1235
:100528008A11A22A02307706031D9B2A9C2AA22A36
:10053800C0300A128A11C8220A128A116830F600DD
:10054800E430F500F50BA62AF60BA62A000074087D
:100558000319AF2AB02AC72AB92A14300A128A11F5
:10056800C8220A128A110130F4027408031DBD2A38
:10057800BE2AB12A6830F600E430F500F50BC22A2D
:10058800F60BC22A00000800F300731CCC2ACD2AFF
:10059800D12A831203130817D42A831203130813CA
:1005A800F31CD72AD82ADA2A8817DB2A8813731D5E
:1005B800DE2ADF2AE12A0614E22A0610F31DE52ABC
:1005C800E62AE82A8614E92A8610731EEC2AED2A00
:1005D800EF2A0615F02A0611F31EF32AF42AF62A42
:1005E8008615F72A8611731FFA2AFB2AFD2A061692
:1005F800FE2A0612F31F012B022B042B8616052B4D
:1006080086120A128A1116240A128A110800F400A6
:10061800212B3030492B3130492B3230492B3330A4
:10062800492B3430492B3530492B3630492B37305C
:10063800492B3830492B3930492B7408F200F30123
:100648007308003A0319292B492B7208003A031939
:100658000D2B013A03190F2B033A0319112B013AF9
:100668000319132B073A0319152B013A0319172BF2
:10067800033A0319192B013A03191B2B0F3A0319D3
:100688001D2B013A03191F2B492B0800F200831672
:10069800031394018312031394019412941683167E
:1006A8000313871207160630720203185C2B5D2BA2
:1006B800662B043072020318622B632B652B87119B
:1006C800662B871504307206031D6B2B6C2B6D2B64
:1006D80085168312031314087204940083160313F7
:1006E8008C11831203131412831603131413941317
:1006F8000800F20008307206031D832B842B892B17
:10070800831603130F168F160F1704307206031D76
:100718008E2B8F2B942B831603130F128F160F1704
:1007280002307206031D992B9A2B9F2B83160313F5
:100738000F168F120F177203031DA32BA42BA92BBF
:10074800831603130F128F120F17831603130F1438
:10075800080003308A000408840A820700345334EE
:1007680031343A3420342034203420345334323471
:100778003A34203420342034533433343A34003477
:100788004A346F34733465342034533461346E34EE
:10079800743469347A346F34003448346F346C34C8
:1007A80061340034F6008312031388150812F5012A
:1007B800EE2B7508760784000A128A11AD230A12F7
:1007C8008A110A128A11C8220A128A110130F40009
:1007D8007408F5077508760784000A128A11AD2394
:1007E8000A128A11003A031DFA2BFB2BDD2B080095
:1007F800831203138811081201300A128A11C822C1
:100808000A128A111A30F500F830F400F40B0A2C99
:10081800F50B0A2C000002300A128A11C8220A12AB
:100828008A110800831203138816C730F2001C2CA3
:10083800F20B1B2C1F2C202C831203138812080088
:10084800F400831203138815081274080A128A1117
:10085800C8220A128A11080083160313141C352CA7
:10086800362C302C831203131308080071088A00F1
:10087800700E8300FE0E7E0E0900F20072088312CD
:06088800031393000800B9
:04400E00D420FF3F7C
:00000001FF
