:100000000A128A11F52F00308A000408840A820738
:1000100000344A346F3473346534203453346134DB
:100020006E34743469347A346F3400344134443477
:1000300043343A34003448346F346C34613400341F
:1007DE0083160313141CF42BF52BEF2B08000A12AF
:1007EE008A11EF230A128A118312031313080800C9
:1007FE00831203138816C730F000052CF00B042C5F
:10080E00082C092C8312031388120800F20083129D
:10081E0003138716081272080A128A11CA240A12C2
:10082E008A110A128A11FF230A128A110800F30094
:10083E00831603138712731D252C262C2A2C72085F
:10084E00940087152E2C700872049400871173087B
:10085E00710483120313940008008312031387128A
:10086E00081201300A128A11CA240A128A111A3089
:10087E00F300F830F200F20B422CF30B422C000086
:10088E0002300A128A11CA240A128A110800F400D0
:10089E008312031387160812F301662C730874076C
:1008AE0084000A128A1103200A128A110A128A116E
:1008BE00CA240A128A110130F2007208F307730873
:1008CE00740784000A128A1103200A128A11003A50
:1008DE00031D722C732C552C0800831603178801E8
:1008EE00890183160313850186018801890183120C
:1008FE0003138501880189018601831603130711ED
:10090E0083120313071504300A128A119A240A124D
:10091E008A11F001F101F20120300A128A111E240F
:10092E000A128A110800F00008307006031DA02C70
:10093E00A12CA62C831603130F168F160F17043037
:10094E007006031DAB2CAC2CB12C831603130F12A7
:10095E008F160F1702307006031DB62CB72CBC2C49
:10096E00831603130F168F120F177003031DC02C5F
:10097E00C12CC62C831603130F128F120F1783165A
:10098E0003130F140800F100711CCE2CCF2CD32CA6
:10099E00831203130817D62C831203130813F11CAA
:1009AE00D92CDA2CDC2C8817DD2C8813711DE02C49
:1009BE00E12CE32C0614E42C0610F11DE72CE82C98
:1009CE00EA2C8614EB2C8610711EEE2CEF2CF12CDB
:1009DE000615F22C0611F11EF52CF62CF82C8615A8
:1009EE00F92C8611711FFC2CFD2CFF2C0616002DE8
:1009FE000612F11F032D042D062D8616072D8612C5
:100A0E000A128A11FF230A128A110800F5008312B6
:100A1E000313871208127503031D162D172D1E2D95
:100A2E0080300A128A11CA240A128A112A2D023023
:100A3E007506031D232D242D2A2DC0300A128A116E
:100A4E00CA240A128A116830F400E430F300F30B62
:100A5E002E2DF40B2E2D000072080319372D382D74
:100A6E004F2D412D14300A128A11CA240A128A11EE
:100A7E000130F2027208031D452D462D392D6830C6
:100A8E00F400E430F300F30B4A2DF40B4A2D000072
:100A9E00080083120313A000A101A2010A30F00086
:100AAE000030F100831203132008FA00FB017A08CC
:100ABE00F2007B08F3000A128A11A1250A128A118C
:100ACE007008FC008312031321087907FD007D08CE
:100ADE0084007C08831380000A30F0000030F1009F
:100AEE0021087907FA007A08840000082002F20033
:100AFE00F301031CF3030A128A11B8260A128A1193
:100B0E007008FB007B0883120313A0000130A107BD
:100B1E000318A20A0030A2072208803AFF00803094
:100B2E007F02031D9C2D03302102031C9F2DA02D3F
:100B3E00552D0800F601F31FA52DA62DAD2DF2099A
:100B4E00F309F20A0319F30AF601F60AF11FB02DA2
:100B5E00B12DB62DF009F109F00A0319F10A70084A
:100B6E0071040319BB2DBC2DEB2DF501F50ACA2D11
:100B7E0001300310F00DF10DFF3E031DC02D0130AD
:100B8E00F4007408F507F11FCD2DCE2DBF2D710881
:100B9E007302031DD42D70087202031CD72DD82D9D
:100BAE00DE2D7008F2027108031CF303F30201300C
:100BBE000310F10CF00CFF3E031DDF2D0130F5028A
:100BCE00031DEA2DEB2DCE2D76080319EF2DF02DFA
:100BDE00F52DF209F309F20A0319F30A7308F1006D
:100BEE007208F00008002D2E3030F0000030F100B9
:100BFE00522E3130F0000030F100522E3230F00023
:100C0E000030F100522E3330F0000030F100522E41
:100C1E003430F0000030F100522E3530F00000304C
:100C2E00F100522E3630F0000030F100522E3730E7
:100C3E00F0000030F100522E3830F0000030F1009C
:100C4E00522E3930F0000030F100522E7108003A69
:100C5E000319322E522E7008003A0319FB2D013A59
:100C6E000319002E033A0319052E013A03190A2E11
:100C7E00073A03190F2E013A0319142E033A0319DA
:100C8E00192E013A03191E2E0F3A0319232E013A7B
:100C9E000319282E522E08008312031387120812EE
:100CAE002530F3005B30F200F20B5B2EF30B5B2E64
:100CBE00602E30300A128A11CA240A128A110B30A1
:100CCE00F3006230F200F20B6A2EF30B6A2E000074
:100CDE0030300A128A11CA240A128A114230F200E6
:100CEE00F20B772E000030300A128A11CA240A1233
:100CFE008A114230F200F20B822E000038300A12B6
:100D0E008A11CA240A128A114230F200F20B8D2E79
:100D1E00000008300A128A11CA240A128A114230BF
:100D2E00F200F20B982E000001300A128A11CA242A
:100D3E000A128A114230F200F20BA32E0000063086
:100D4E000A128A11CA240A128A114230F200F20BD8
:100D5E00AE2E00000C300A128A11CA240A128A1111
:100D6E000800F601F11FBC2EBD2EC42EF009F109AC
:100D7E00F00A0319F10AF601F60AF31FC72EC82E60
:100D8E00D12EF209F309F20A0319F30A0130F40025
:100D9E007408F606F701F801700871040319D82ECD
:100DAE00D92E102FF501F50AE72E01300310F00DA4
:100DBE00F10DFF3E031DDD2E0130F4007408F50722
:100DCE00F11FEA2EEB2EDC2E01300310F70DF80D7D
:100DDE00FF3E031DEC2E71087302031DF82E7008E2
:100DEE007202031CFB2EFC2E032F7008F2027108F8
:100DFE00031CF303F302771401300310F10CF00C13
:100E0E00FF3E031D042F0130F502031D0F2F102F7F
:100E1E00EB2E76080319142F152F1A2FF709F80940
:100E2E00F70A0319F80A7808F1007708F0000800AD
:100E3E000A128A1174240A128A110A128A1153266E
:100E4E000A128A110A128A1134240A128A11F20124
:100E5E0001300A128A110D250A128A1113300A1254
:100E6E008A114E240A128A11023083120313A30030
:100E7E002308F20002300A128A110D250A128A1175
:100E8E0001300A128A114E240A128A111A30831264
:100E9E000313A5005E30A4006D30A300A30B552FE5
:100EAE00A40B552FA50B552F5C2F0A128A11342433
:100EBE000A128A11831203130711C7308312031308
:100ECE00A300692FA30B682F6C2F0A128A11F62329
:100EDE000A128A1183120313A3002308A900C73034
:100EEE0083120313A3007B2FA30B7A2F7E2F831263
:100EFE00031307152A30A3002308F90029080A1244
:100F0E008A1150250A128A11831203132A08A3008C
:100F1E00A4012308F0002408F1000A128A11FA2510
:100F2E000A128A11700883120313A5002508A8005F
:100F3E002B08A300A4012308F0002408F1000A12D4
:100F4E008A11FA250A128A11700883120313A5005A
:100F5E002508A7002C08A300A4012308F0002408EC
:100F6E00F1000A128A11FA250A128A1170088312E8
:100F7E000313A5002508A600F201F20A01300A1299
:100F8E008A110D250A128A110E300A128A114E2468
:100F9E000A128A11F201F20A02300A128A110D2582
:100FAE000A128A118312031328080A128A110D24B9
:100FBE000A128A118312031327080A128A110D24AA
:100FCE000A128A118312031326080A128A110D249B
:100FDE000A128A11612F0A128A1100288312031332
:100FEE00A601A701A801A901AA0183010A128A116B
:020FFE001F2FA3
:04400E00D420FF3F7C
:00000001FF
