:060000000A128A110C280F
:10000800FE00030EF0000A08F1000A128A1188287F
:100018000A128A110F2883010A128A117F28F20016
:1000280008307206031D19281A281F28831603137F
:100038000F168F160F1704307206031D2428252863
:100048002A28831603130F128F160F170230720611
:10005800031D2F2830283528831603130F168F12F7
:100068000F177203031D39283A283F2883160313F4
:100078000F128F120F17831603130F14080083161D
:1000880003178801890183160313850186018801F6
:10009800890183120313850188018901860183166A
:1000A8000313071183120313071504300A128A1168
:1000B80013200A128A11F201F301F40120300A1206
:1000C8008A1169200A128A110800F50083160313A1
:1000D8008712751D70287128752874089400871573
:1000E80079287208740494008711750873048312C0
:1000F8000313940008000A128A1143200A128A1175
:1001080084280A128A110C2871088A00700E83004C
:06011800FE0E7E0E090040
:04400E00D420FF3F7C
:00000001FF
