:060000000A128A110C280F
:10000800FE00030EF0000A08F1000A128A11AF2A56
:100018000A128A110F28F801F901FA018312031351
:10002800A001A101A201A301A40183010A128A115E
:10003800EF288316031788018901831603138501A6
:1000480086018801890183120313850188018901CA
:1000580086018701831603130711831203130715FB
:10006800831603138710831203138714831603134D
:10007800071083120313071404300A128A11FE2191
:100088000A128A1100300A128A11CB210A128A1127
:100098000A128A118A200A128A110A128A117D22EA
:1000A8000A128A11F40101300A128A1145210A1232
:1000B8008A111F300A128A1157220A128A11023035
:1000C80083120313A5002508F40002300A128A11CE
:1000D80045210A128A1112300A128A1157220A126D
:1000E8008A111A3083120313A7005E30A6006D3000
:1000F800A500A50B7D28A60B7D28A70B7D288428A5
:100108000A128A117D220A128A1108008312031327
:10011800881108122530F5005B30F400F40B9228A2
:10012800F50B9228972830300A128A1188210A1272
:100138008A110B30F5006230F400F40BA128F50B9E
:10014800A128000030300A128A1188210A128A1167
:100158004230F400F40BAE28000030300A128A1145
:1001680088210A128A114230F400F40BB9280000E1
:1001780038300A128A1188210A128A114230F40092
:10018800F40BC428000008300A128A1188210A12C8
:100198008A114230F400F40BCF28000001300A1213
:1001A8008A1188210A128A114230F400F40BDA28E5
:1001B800000006300A128A1188210A128A11423078
:1001C800F400F40BE52800000C300A128A1188218B
:1001D8000A128A1108000A128A111D200A128A11AD
:1001E800FA01F40101300A128A1145210A128A1112
:1001F80001300A128A1157220A128A118312031334
:100208000711C73083120313A8000A29A80B09296C
:100218000D2901300A128A11B6220A128A11823077
:1002280083120313A900DD30A800A80B1929A90B14
:10023800192983160313141C2229232930290A1289
:100248008A11A5220A128A1183120313A800A90190
:100258002808A0002908A100C73083120313A800AA
:100268003529A80B342938298312031307152008C8
:100278000A128A1157220A128A11F5280A128A11BB
:100288000C28F70083120313881108127703031D43
:100298004E294F29562980300A128A1188210A12BC
:1002A8008A11622902307706031D5B295C296229BD
:1002B800C0300A128A1188210A128A116830F600A1
:1002C800E430F500F50B6629F60B66290000740882
:1002D80003196F2970298729792914300A128A117C
:1002E80088210A128A110130F4027408031D7D293D
:1002F8007E2971296830F600E430F500F50B822973
:10030800F60B822900000800F300731C8C298D2944
:1003180091298312031308179429831203130813CE
:10032800F31C972998299A2988179B298813731DE4
:100338009E299F29A1290614A2290610F31DA52983
:10034800A629A8298614A9298610731EAC29AD29C7
:10035800AF290615B0290611F31EB329B429B62909
:100368008615B7298611731FBA29BB29BD29061618
:10037800BE290612F31FC129C229C4298616C52918
:1003880086120A128A1197220A128A110800F200AC
:100398008316031394018312031394019412941681
:1003A8008316031387120716063072020318DD2915
:1003B800DE29E729043072020318E329E429E62933
:1003C8008711E729871504307206031DEC29ED29EA
:1003D800EE298516831203131408720494008316F9
:1003E80003138C11831203131412831603131413AB
:1003F80094130800F20008307206031D042A052A27
:100408000A2A831603130F168F160F170430720665
:10041800031D0F2A102A152A831603130F128F168D
:100428000F1702307206031D1A2A1B2A202A831668
:1004380003130F168F120F177203031D242A252A80
:100448002A2A831603130F128F120F17831603130A
:100458000F14080002308A000408840A8207003456
:10046800533431343A342034203420342034533453
:1004780032343A34203420342034533433343A3448
:1004880000344A346F34733465342034533461345F
:100498006E34743469347A346F34003448346F34C9
:1004A8006C3461340034F600831203138815081283
:1004B800F5016F2A7508760784000A128A112E2220
:1004C8000A128A110A128A1188210A128A11013025
:1004D800F4007408F5077508760784000A128A1173
:1004E8002E220A128A11003A031D7B2A7C2A5E2AD0
:1004F8000800831203138811081201300A128A11A6
:1005080088210A128A111A30F500F830F400F40B29
:100518008B2AF50B8B2A000002300A128A118821D7
:100528000A128A110800831203138816C730F200D2
:100538009D2AF20B9C2AA02AA12A8312031388124F
:10054800080083160313141CAA2AAB2AA52A8312AF
:1005580003131308080071088A00700E8300FE0E4A
:100568007E0E0900F200720883120313930008003C
:04400E00D420FF3F7C
:00000001FF
