:060000000A128A110C280F
:10000800FE00030EF0000A08F1000A128A11412CC2
:100018000A128A110F28FA01FB0183120313AD019A
:10002800AE01AF01B001B101B201B301B401830166
:100038000A128A111F280A128A11A8200A128A1184
:1000480083120313AF01B001F40101300A128A11BF
:100058008C220A128A1101300A128A11DD230A122F
:100068008A11831203130711023083120313AB00A2
:10007800AB0B3C28000001300A128A1148240A12EE
:100088008A110A128A1137240A128A118312031359
:10009800AB00AC012B08AF002C08B0000230831273
:1000A8000313AB00AB0B562800008312031307158C
:1000B8007B30AB002B08F9002F080A128A113C226A
:1000C8000A128A117D080A128A1112230A128A1149
:1000D80083120313AB002B08FA007C080A128A115A
:1000E80012230A128A1183120313AB002B08B200E1
:1000F8007B080A128A1112230A128A118312031327
:10010800AB002B08B100F40102300A128A118C22CC
:100118000A128A117A080A128A112B240A128A11E1
:100128008312031332080A128A112B240A128A1125
:100138008312031331080A128A112B240A128A1116
:1001480028280A128A110C288316031788018901A6
:10015800831603138501860188018901831203131D
:100168008501880189018601870183160313071118
:1001780083120313071583160313871083120313BF
:10018800871483160313071083120313071404300C
:100198000A128A1184230A128A1100300A128A115B
:1001A80051230A128A110A128A117E210A128A110F
:1001B8000A128A1103240A128A11F40101300A1260
:1001C8008A118C220A128A111F300A128A11DD2321
:1001D8000A128A11023083120313A0002008F400C7
:1001E80002300A128A118C220A128A1112300A125B
:1001F8008A11DD230A128A111A3083120313A2000E
:100208005E30A1006D30A000A00B0829A10B0829C1
:10021800A20B08290F290A128A1103240A128A112B
:10022800080083120313A101F31F1B291C2923298A
:10023800F209F309F20A0319F30AA101A10AF51F49
:10024800262927293029F409F509F40A0319F50A9A
:100258000130F6007608A106A201A3017208730412
:100268000319372938296F29A001A00A4629013026
:100278000310F20DF30DFF3E031D3C290130F6007B
:100288007608A007F31F49294A293B2901300310A2
:10029800A20DA30DFF3E031D4B2973087502031D14
:1002A800572972087402031C5A295B2962297208AB
:1002B800F4027308031CF503F5022214013003103D
:1002C800F30CF20CFF3E031D63290130A002031D4D
:1002D8006E296F294A292108031973297429792954
:1002E800A209A309A20A0319A30A2308F3002208F2
:1002F800F200080083120313881108122530F50054
:100308005B30F400F40B8629F50B86298B293030F5
:100318000A128A11CF220A128A110B30F5006230B4
:10032800F400F40B9529F50B9529000030300A12DA
:100338008A11CF220A128A114230F400F40BA22942
:10034800000030300A128A11CF220A128A11423074
:10035800F400F40BAD29000038300A128A11CF22BC
:100368000A128A114230F400F40BB8290000083050
:100378000A128A11CF220A128A114230F400F40BB1
:10038800C329000001300A128A11CF220A128A11E9
:100398004230F400F40BCE29000006300A128A110C
:1003A800CF220A128A114230F400F40BD929000036
:1003B8000C300A128A11CF220A128A110800F80199
:1003C800F51FE729E829EF29F409F509F40A0319C3
:1003D800F50AF801F80AF31FF229F329F829F209B6
:1003E800F309F20A0319F30A720873040319FD29C1
:1003F800FE292D2AF701F70A0C2A01300310F20D05
:10040800F30DFF3E031D022A0130F6007608F707B8
:10041800F31F0F2A102A012A73087502031D162AD2
:1004280072087402031C192A1A2A202A7208F40274
:100438007308031CF503F50201300310F30CF20CEA
:10044800FF3E031D212A0130F702031D2C2A2D2A05
:10045800102A78080319312A322A372AF409F509AB
:10046800F40A0319F50A7508F3007408F200080085
:1004780083120313A800A901AA010A30F200003070
:10048800F300831203132808A400A5012408F4002C
:100498002508F5000A128A11E3210A128A11720846
:1004A80083120313A60029087907A70027088400E8
:1004B800260880000A30F2000030F3002908790786
:1004C800A4002408840000082802F400F501031C95
:1004D800F5030A128A1115210A128A117208831269
:1004E8000313A5002508A8000130A9070318AA0AC4
:1004F8000030AA072A08803AFF0080307F02031DD7
:10050800872A03302902031C8A2A8B2A412A0800D9
:10051800F70083120313881108127703031D952A25
:10052800962A9D2A80300A128A11CF220A128A112D
:10053800A92A02307706031DA22AA32AA92AC030B5
:100548000A128A11CF220A128A116830F600E430A2
:10055800F500F50BAD2AF60BAD2A00007408031957
:10056800B62AB72ACE2AC02A14300A128A11CF22F4
:100578000A128A110130F4027408031DC42AC52A1C
:10058800B82A6830F600E430F500F50BC92AF60BF6
:10059800C92A00000800F300731CD32AD42AD82AD9
:1005A800831203130817DB2A831203130813F31C9F
:1005B800DE2ADF2AE12A8817E22A8813731DE52A32
:1005C800E62AE82A0614E92A0610F31DEC2AED2A81
:1005D800EF2A8614F02A8610731EF32AF42AF62AC4
:1005E8000615F72A0611F31EFA2AFB2AFD2A861594
:1005F800FE2A8611731F012B022B042B0616052BCE
:100608000612F31F082B092B0B2B86160C2B8612B0
:100618000A128A111D240A128A110800F400282BD4
:100628003030502B3130502B3230502B3330502B50
:100638003430502B3530502B3630502B3730502B30
:100648003830502B3930502B7408F200F3017308FE
:10065800003A0319302B502B7208003A0319142B57
:10066800013A0319162B033A0319182B013A0319F7
:100678001A2B073A03191C2B013A03191E2B033AAC
:100688000319202B013A0319222B0F3A0319242BA3
:10069800013A0319262B502B0800F2008316031386
:1006A800940183120313940194129416831603136E
:1006B80087120716063072020318632B642B6D2B02
:1006C800043072020318692B6A2B6C2B87116D2B6F
:1006D800871504307206031D722B732B742B851635
:1006E80083120313140872049400831603138C11E5
:1006F800831203131412831603131413941308009C
:10070800F20008307206031D8A2B8B2B902B831660
:1007180003130F168F160F1704307206031D952B3F
:10072800962B9B2B831603130F128F160F1702306D
:100738007206031DA02BA12BA62B831603130F16DD
:100748008F120F177203031DAA2BAB2BB02B831626
:1007580003130F128F120F17831603130F140800B9
:1007680003308A000408840A820700345334313481
:100778003A342034203420342034533432343A3458
:10078800203420342034533433343A3400344A3457
:100798006F34733465342034533461346E347434B4
:1007A80069347A346F34003448346F346C346134CB
:1007B8000034F6008312031388150812F501F52B8F
:1007C8007508760784000A128A11B4230A128A115E
:1007D8000A128A11CF220A128A110130F400740811
:1007E800F5077508760784000A128A11B4230A12DD
:1007F8008A11003A031D012C022CE42B08008312F5
:1008080003138811081201300A128A11CF220A1222
:100818008A111A30F500F830F400F40B112CF50B9E
:10082800112C000002300A128A11CF220A128A11F2
:100838000800831203138816C730F200232CF20B2A
:10084800222C262C272C8312031388120800F4006C
:10085800831203138815081274080A128A11CF220A
:100868000A128A11080083160313141C3C2C3D2C11
:10087800372C831203131308080071088A00700EBE
:100888008300FE0E7E0E0900F20072088312031325
:0408980093000800C1
:04400E00D420FF3F7C
:00000001FF
