:060000000A128A110C280F
:10000800FE00030EF0000A08F1000A128A11502FB0
:100018000A128A110F280A128A115D270A128A11F8
:10002800DA000A128A115E270A128A11DB000A1204
:100038008A115F270A128A11DC000A128A116027C6
:100048000A128A11DD0083133E3084005A300A12E6
:100058008A1148270A128A11FA01FB0183010A1240
:100068008A1136280A128A11FF220A128A1183126B
:100078000313C801C901C601C701D70107158714B1
:100088000714F40101300A128A114B250A128A1149
:1000980014300A128A11E4260A128A110A128A11E5
:1000A80047240A128A1183120313871407140711AD
:1000B8005D285E28000001300A128A1157270A12AB
:1000C8008A110A128A113E270A128A11831203130F
:1000D800BC00BD013C08C8003D08C900732874284D
:1000E80000008312031307158714071407158710D8
:1000F80007147E287F28000001300A128A1157272A
:100108000A128A110A128A113E270A128A118312C8
:100118000313BC00BD013C08C6003D08C700942875
:1001280095280000831203138714871407140715F2
:10013800871407109F28A028000001300A128A118E
:1001480057270A128A110A128A113E270A128A119F
:1001580083120313BC003C08D700B228B328000060
:10016800831203138714871407147A30BC003C08E1
:10017800F90046080A128A11FA240A128A117C0820
:100188000A128A1142260A128A1183120313BC002A
:100198003C08D0007B080A128A1142260A128A11EA
:1001A80083120313BC003C08CF007A080A128A1194
:1001B80042260A128A1183120313BC003C08CE009F
:1001C8007B30BC003C08F90048080A128A11FA245E
:1001D8000A128A117D080A128A1142260A128A1105
:1001E80083120313BC003C08D4007C080A128A114D
:1001F80042260A128A1183120313BC003C08D3005A
:100208007B080A128A1142260A128A1183120313E2
:10021800BC003C08D2005830BC003C08F900570824
:100228000A128A11FA240A128A11831203135A082D
:100238000A128A1142260A128A1183120313BC0079
:100248003C08CC0059080A128A1142260A128A115F
:1002580083120313BC003C08CB0058080A128A1109
:1002680042260A128A1183120313BC003C08CA00F2
:100278000730BC003C08F40002300A128A114B25F2
:100288000A128A118312031350080A128A1132279C
:100298000A128A11831203134F080A128A1132278D
:1002A8000A128A11831203134E080A128A1132277E
:1002B8000A128A11F40102300A128A114B250A1215
:1002C8008A118312031354080A128A1132270A1258
:1002D8008A118312031353080A128A1132270A1249
:1002E8008A118312031352080A128A1132270A123A
:1002F8008A110D3083120313BC003C08F40002304D
:100308000A128A114B250A128A11831203134C0808
:100318000A128A1132270A128A11831203134B0810
:100328000A128A1132270A128A11831203134A0801
:100338000A128A1132270A128A1145280A128A11CA
:100348000C2880307206253003197306031DAD2969
:10035800AE29C129043074067504031DB429B529D2
:10036800C12983160313181218158316031787114A
:1003780019308316031399009A01803072062530CC
:1003880003197306031DC929CA29DD290830740613
:100398007504031DD029D129DD29831603131812EA
:1003A8001811831603178715333083160313990022
:1003B8009A0180307206253003197306031DE5295A
:1003C800E629F82974037504031DEB29EC29F8299B
:1003D8008316031318121815831603178715193077
:1003E8008316031399009A01B13072062830031955
:1003F8007306031D002A012A142A043074067504A2
:10040800031D072A082A142A83160313181218151D
:1004180083160317871517308316031399009A015B
:10042800B1307206283003197306031D1C2A1D2AD1
:10043800302A083074067504031D232A242A302A1A
:1004480083160313181218118316031787152F30F4
:100458008316031399009A01B130720628300319E4
:100468007306031D382A392A4B2A74037504031DA1
:100478003E2A3F2A4B2A8316031318121811831693
:100488000317871505308316031399009A01831201
:1004980003139817181318168316031398168C123B
:1004A8000800C62A0130F2002E088400720883135F
:1004B8008000FE2A2208F2002E08840072088313A6
:1004C8008000FE2A2308F2002E0884007208831395
:1004D8008000FE2A2408F2002E0884007208831384
:1004E8008000FE2A2508F2002E0884007208831373
:1004F8008000FE2A2608F2002E0884007208831362
:100508008000FE2A2708F2002E0884007208831350
:100518008000FE2A2808F2002E088400720883133F
:100528008000FE2A2908F2002E088400720883132E
:100538008000FE2A2A08F2002E088400720883131D
:100548008000FE2A2B08F2002E088400720883130C
:100558008000FE2A2C08F2002E08840072088313FB
:100568008000FE2A2D08F2002E08840072088313EA
:100578008000FE2A0D30F2002E08840072088313D2
:100588008000FE2A83120313200884008317211C8D
:1005980083130008F200F3017308003A0319D52AFF
:1005A800BE2A7208003A0319562A013A03195E2A2C
:1005B800033A0319662A013A03196E2A073A0319FE
:1005C800762A013A03197E2A033A0319862A013A40
:1005D80003198E2A0F3A0319962A013A03199E2AFB
:1005E800033A0319A62A013A0319AE2A073A03194E
:1005F800B62ABE2A080083160317880189018316C4
:10060800031385018601880189018312031385017B
:100618008801890186018701831603130711831254
:100628000313071583160313871083120313871404
:1006380083160313071083120313071404300A12D6
:100648008A11B4260A128A1100300A128A118126E8
:100658000A128A110A128A11E2230A128A110A124C
:100668008A110A270A128A11F40101300A128A1122
:100678004B250A128A1132300A128A11E4260A120C
:100688008A11023083120313A0002008F4000230FC
:100698000A128A114B250A128A1125300A128A1168
:1006A800E4260A128A111A3083120313A2005E305C
:1006B800A1006D30A000A00B5F2BA10B5F2BA20B3C
:1006C8005F2B662B0A128A110A270A128A118030B8
:1006D800F2002530F3000430F4000030F5000A126F
:1006E8008A11A5210A128A11080083120313A10195
:1006F800F31F7F2B802B872BF209F309F20A0319CA
:10070800F30AA101A10AF51F8A2B8B2B942BF4095C
:10071800F509F40A0319F50A0130F6007608A1066E
:10072800A201A3017208730403199B2B9C2BD32BE2
:10073800A001A00AAA2B01300310F20DF30DFF3E11
:10074800031DA02B0130F6007608A007F31FAD2B80
:10075800AE2B9F2B01300310A20DA30DFF3E031DEE
:10076800AF2B73087502031DBB2B72087402031CA0
:10077800BE2BBF2BC62B7208F4027308031CF503AB
:10078800F502221401300310F30CF20CFF3E031D96
:10079800C72B0130A002031DD22BD32BAE2B21086F
:1007A8000319D72BD82BDD2BA209A309A20A0319F9
:1007B800A30A2308F3002208F20008008312031397
:1007C800881108122530F5005B30F400F40BEA2B91
:1007D800F50BEA2BEF2B30300A128A118E250A12FC
:1007E8008A110B30F5006230F400F40BF92BF50B8D
:1007F800F92B000030300A128A118E250A128A114C
:100808004230F400F40B062C000030300A128A1132
:100818008E250A128A114230F400F40B112C0000C4
:1008280038300A128A118E250A128A114230F400D1
:10083800F40B1C2C000008300A128A118E250A12AB
:100848008A114230F400F40B272C000001300A1200
:100858008A118E250A128A114230F400F40B322CC8
:10086800000006300A128A118E250A128A114230B7
:10087800F400F40B3D2C00000C300A128A118E256E
:100888000A128A110800831203130C1E4C2C4D2CDB
:10089800A02CD6019A2C593099004208A000430890
:1008A800A1005208AF002F08A2005308B00030087A
:1008B800A3005408B1003108A4003730B200320850
:1008C800A5004E08B3003308A6004F08B40034084A
:1008D800A7005008B5003508A8003730B60036081C
:1008E800A9004A08B7003708AA004B08B80038081A
:1008F800AB004C08B9003908AC003B30BA003A08E4
:10090800AD005930BB003B08AE000A128A115522CF
:100918000A128A11013083120313C2070318C30A8B
:100928000030C3070130AF002F08D6071430560235
:10093800031C9F2CA02C4F2C0800F801F51FA52C98
:10094800A62CAD2CF409F509F40A0319F50AF801E7
:10095800F80AF31FB02CB12CB62CF209F309F20AED
:100968000319F30A720873040319BB2CBC2CEB2C73
:10097800F701F70ACA2C01300310F20DF30DFF3E00
:10098800031DC02C0130F6007608F707F31FCD2CA5
:10099800CE2CBF2C73087502031DD42C7208740268
:1009A800031CD72CD82CDE2C7208F4027308031C05
:1009B800F503F50201300310F30CF20CFF3E031DA2
:1009C800DF2C0130F702031DEA2CEB2CCE2C780823
:1009D8000319EF2CF02CF52CF409F509F40A031986
:1009E800F50A7508F3007408F2000800831203136F
:1009F800A800A901AA010A30F2000030F30083120E
:100A080003132808A400A5012408F4002508F5000C
:100A18000A128A11A1240A128A1172088312031376
:100A2800A60029087907A700270884002608831349
:100A380080000A30F2000030F30029087907A4008A
:100A48002408840000082802F400F501031CF503BB
:100A58000A128A1179230A128A117208831203135F
:100A6800A5002508A8000130A9070318AA0A003024
:100A7800AA072A08803AFF0080307F02031D462D0E
:100A880003302902031C492D4A2DFF2C0800F700CA
:100A980083120313881108127703031D542D552D53
:100AA8005C2D80300A128A118E250A128A11682D4F
:100AB80002307706031D612D622D682DC0300A12A1
:100AC8008A118E250A128A116830F600E430F50082
:100AD800F50B6C2DF60B6C2D000074080319752DA1
:100AE800762D8D2D7F2D14300A128A118E250A122B
:100AF8008A110130F4027408031D832D842D772D8B
:100B08006830F600E430F500F50B882DF60B882DDB
:100B180000000800F300731C922D932D972D83126B
:100B2800031308179A2D831203130813F31C9D2D22
:100B38009E2DA02D8817A12D8813731DA42DA52DDA
:100B4800A72D0614A82D0610F31DAB2DAC2DAE2D28
:100B58008614AF2D8610731EB22DB32DB52D061534
:100B6800B62D0611F31EB92DBA2DBC2D8615BD2D37
:100B78008611731FC02DC12DC32D0616C42D061254
:100B8800F31FC72DC82DCA2D8616CB2D86120A1223
:0A0B98008A1124270A128A110800AE
:100C000006308A000408840A8207003453343134E1
:100C10003A342034203420342034533432343A34BB
:100C2000203420342034533433343A340A340D34ED
:100C30000034533431343A342034203420342034D6
:100C4000533432343A34203420342034533433345F
:100C50003A3400344A346F347334653420345334B6
:100C600061346E34743469347A346F340034483407
:100C70006F346C3461340034203420342034003438
:100C800043340034F400582E3030802E3130802E22
:100C90003230802E3330802E3430802E3530802E0E
:100CA0003630802E3730802E3830802E3930802EEE
:100CB0007408F200F3017308003A0319602E802EC5
:100CC0007208003A0319442E013A0319462E033ADA
:100CD0000319482E013A03194A2E073A03194C2EDC
:100CE000013A03194E2E033A0319502E013A031903
:100CF000522E0F3A0319542E013A0319562E802E04
:100D00000800F20083160313940183120313940165
:100D10009412941683160313871207160630720274
:100D20000318932E942E9D2E043072020318992ED0
:100D30009A2E9C2E87119D2E871504307206031D56
:100D4000A22EA32EA42E8516831203131408720458
:100D50009400831603138C11831203131412831649
:100D60000313141394130800F20008307206031DD5
:100D7000BA2EBB2EC02E831603130F168F160F1715
:100D800004307206031DC52EC62ECB2E8316031308
:100D90000F128F160F1702307206031DD02ED12EA0
:100DA000D62E831603130F168F120F177203031D0F
:100DB000DA2EDB2EE02E831603130F128F120F177D
:100DC000831603130F140800F6008312031388150B
:100DD0000812F501FC2E7508760784000A128A11A4
:100DE00000260A128A110A128A118E250A128A1105
:100DF0000130F4007408F5077508760784000A12BC
:100E00008A1100260A128A11003A031D082F092FA1
:100E1000EB2E0800831203138811081201300A1206
:100E20008A118E250A128A111A30F500F830F40062
:100E3000F40B182FF50B182F000002300A128A113C
:100E40008E250A128A110800831203138816C730F0
:100E5000F2002A2FF20B292F2D2F2E2F831203138E
:100E600088120800F400831203138815081274080E
:100E70000A128A118E250A128A110800831603139A
:100E8000141C432F442F3E2F831203131308080012
:100E900064008001840A0406031900340406492F03
:100EA00071088A00700E8300FE0E7E0E0900F200AB
:100EB00072088312031393000800013400341334C2
:020EC0000034FC
:04400E00D420FF3F7C
:00000001FF
