:060000000A128A110C280F
:10000800FE00030EF0000A08F1000A128A11EB2D17
:100018000A128A110F280A128A11F8250A128A115F
:10002800C4000A128A11F9250A128A11C50083131D
:100038002030840037300A128A11E3250A128A1107
:10004800FA01FB0183010A128A112A280A128A116D
:100058003A220A128A1183120313A801A901A601E0
:10006800A701A401A501071587140714F40101309D
:100078000A128A112C240A128A1101300A128A11D2
:100088007F250A128A118312031387140714071194
:100098004D284E28000001300A128A11F2250A1252
:1000A8008A110A128A11D9250A128A118312031396
:1000B800C200C3014208A8004308A90063286428B5
:1000C80000008312031307158714071407158710F8
:1000D80007146E286F28000001300A128A11F225D1
:1000E8000A128A110A128A11D9250A128A11831250
:1000F8000313C200C3014208A6004308A7008428CE
:100108008528000083120313871487140714071522
:10011800871407108F289028000001300A128A11CE
:10012800F2250A128A110A128A11D9250A128A118D
:1001380083120313C200C3014208A4004308A500A8
:10014800A528A62800008312031387148714071410
:100158007A30C2004208F90026080A128A11DB2305
:100168000A128A117C080A128A11B2240A128A1108
:1001780083120313C2004208B0007B080A128A11D6
:10018800B2240A128A1183120313C2004208AF0074
:100198007A080A128A11B2240A128A1183120313E6
:1001A800C2004208AE007B30C2004208F9002808AD
:1001B8000A128A11DB230A128A117D080A128A118F
:1001C800B2240A128A1183120313C2004208B4002F
:1001D8007C080A128A11B2240A128A1183120313A4
:1001E800C2004208B3007B080A128A11B2240A121C
:1001F8008A1183120313C2004208B2003630C200CB
:100208004208F90024080A128A11DB230A128A110B
:100218008312031336080A128A11B2240A128A11A9
:1002280083120313C2004208AC0037080A128A116D
:10023800B2240A128A1183120313C2004208AB00C7
:100248000730C2004208F40002300A128A112C2436
:100258000A128A118312031330080A128A11CD2553
:100268000A128A11831203132F080A128A11CD2544
:100278000A128A11831203132E080A128A11CD2535
:100288000A128A110D3083120313C2004208F400C7
:1002980002300A128A112C240A128A1183120313BB
:1002A8002B080A128A11CD250A128A118312031308
:1002B8002C080A128A11CD250A128A1124300A1232
:1002C8008A117F250A128A11F40102300A128A1152
:1002D8002C240A128A118312031334080A128A1171
:1002E800CD250A128A118312031333080A128A11C0
:1002F800CD250A128A118312031332080A128A11B1
:10030800CD250A128A113A280A128A110C2880303F
:100318007206253003197306031D93299429A7290A
:10032800043074067504031D9A299B29A72983168E
:10033800031318121815831603178711193083161B
:10034800031399009A018030720625300319730649
:10035800031DAF29B029C329083074067504031D8D
:10036800B629B729C329831603131812181183163F
:100378000317871533308316031399009A018030C9
:100388007206253003197306031DCB29CC29DE29F3
:1003980074037504031DD129D229DE29831603139A
:1003A80018121815831603178715193083160313A7
:1003B80099009A01B1307206283003197306031D9B
:1003C800E629E729FA29043074067504031DED2986
:1003D800EE29FA2983160313181218158316031722
:1003E800871517308316031399009A01B1307206E6
:1003F800283003197306031D022A032A162A083017
:1004080074067504031D092A0A2A162A831603137B
:10041800181218118316031787152F308316031324
:1004280099009A01B1307206283003197306031D2A
:100438001E2A1F2A312A74037504031D242A252A1B
:10044800312A8316031318121811831603178715F8
:1004580005308316031399009A0183120313981722
:100468001813181683160313981608008316031713
:100478008801890183160313850186018801890192
:100488008312031385018801890186018701831678
:100498000313071183120313071583160313871019
:1004A800831203138714831603130710831203138D
:1004B800071404300A128A1124250A128A110030FE
:1004C8000A128A11F1240A128A110A128A111D23AA
:1004D8000A128A110A128A11A5250A128A11F40130
:1004E80001300A128A112C240A128A111F300A12AA
:1004F8008A117F250A128A11023083120313B7006A
:100508003708F40002300A128A112C240A128A11C0
:1005180012300A128A117F250A128A111A308312A0
:100528000313B9005E30B8006D30B700B70B9A2AD4
:10053800B80B9A2AB90B9A2AA12A0A128A11A52558
:100548000A128A118030F2002530F3000430F400DA
:100558000030F5000A128A118B210A128A1108004C
:1005680083120313B801F31FBA2ABB2AC22AF2095D
:10057800F309F20A0319F30AB801B80AF51FC52AE4
:10058800C62ACF2AF409F509F40A0319F50A013035
:10059800F6007608B806B901BA017208730403199F
:1005A800D62AD72A0E2BB701B70AE52A013003103D
:1005B800F20DF30DFF3E031DDB2A0130F60076082D
:1005C800B707F31FE82AE92ADA2A01300310B90D20
:1005D800BA0DFF3E031DEA2A73087502031DF62AA9
:1005E80072087402031CF92AFA2A012B7208F40211
:1005F8007308031CF503F502391401300310F30CDA
:10060800F20CFF3E031D022B0130B702031D0D2B18
:100618000E2BE92A38080319122B132B182BB909AA
:10062800BA09B90A0319BA0A3A08F3003908F200F4
:10063800080083120313881108122530F5005B3077
:10064800F400F40B252BF50B252B2A2B30300A123E
:100658008A116F240A128A110B30F5006230F400F7
:10066800F40B342BF50B342B000030300A128A11AE
:100678006F240A128A114230F400F40B412B000057
:1006880030300A128A116F240A128A114230F4009B
:10069800F40B4C2B000038300A128A116F240A120E
:1006A8008A114230F400F40B572B000008300A126C
:1006B8008A116F240A128A114230F400F40B622B5B
:1006C800000001300A128A116F240A128A1142307E
:1006D800F400F40B6D2B000006300A128A116F2407
:1006E8000A128A114230F400F40B782B00000C3007
:1006F8000A128A116F240A128A110800F801F51FDC
:10070800862B872B8E2BF409F509F40A0319F50AB1
:10071800F801F80AF31F912B922B972BF209F30992
:10072800F20A0319F30A7208730403199C2B9D2B10
:10073800CC2BF701F70AAB2B01300310F20DF30DA8
:10074800FF3E031DA12B0130F6007608F707F31FC3
:10075800AE2BAF2BA02B73087502031DB52B7208A7
:100768007402031CB82BB92BBF2B7208F402730850
:10077800031CF503F50201300310F30CF20CFF3EE5
:10078800031DC02B0130F702031DCB2BCC2BAF2B45
:1007980078080319D02BD12BD62BF409F509F40AC4
:1007A8000319F50A7508F3007408F20008008312AB
:1007B8000313BF00C001C1010A30F2000030F3008A
:1007C800831203133F08BB00BC013B08F4003C083C
:1007D800F5000A128A1182230A128A1172088312FA
:1007E8000313BD0040087907BE003E0884003D0899
:1007F800831380000A30F2000030F30040087907C4
:10080800BB003B08840000083F02F400F501031C0C
:10081800F5030A128A11B4220A128A117208831285
:100828000313BC003C08BF000130C0070318C10A0D
:100838000030C1074108803AFF0080307F02031D65
:10084800272C03304002031C2A2C2B2CE02B0800F9
:10085800F70083120313881108127703031D352C40
:10086800362C3D2C80300A128A116F240A128A1104
:10087800492C02307706031D422C432C492CC030EA
:100888000A128A116F240A128A116830F600E430BD
:10089800F500F50B4D2CF60B4D2C000074080319D0
:1008A800562C572C6E2C602C14300A128A116F2487
:1008B8000A128A110130F4027408031D642C652C95
:1008C800582C6830F600E430F500F50B692CF60B6F
:1008D800692C00000800F300731C732C742C782C0E
:1008E8008312031308177B2C831203130813F31CBA
:1008F8007E2C7F2C812C8817822C8813731D852CC5
:10090800862C882C0614892C0610F31D8C2C8D2C13
:100918008F2C8614902C8610731E932C942C962C56
:100928000615972C0611F31E9A2C9B2C9D2C8615C8
:100938009E2C8611731FA12CA22CA42C0616A52C64
:100948000612F31FA82CA92CAB2C8616AC2C8612E9
:100958000A128A11BF250A128A110800F400C82C4D
:100968003030F02C3130F02C3230F02C3330F02C89
:100978003430F02C3530F02C3630F02C3730F02C69
:100988003830F02C3930F02C7408F200F301730879
:10099800003A0319D02CF02C7208003A0319B42C31
:1009A800013A0319B62C033A0319B82C013A031972
:1009B800BA2C073A0319BC2C013A0319BE2C033A86
:1009C8000319C02C013A0319C22C0F3A0319C42C7D
:1009D800013A0319C62CF02C0800F2008316031301
:1009E800940183120313940194129416831603132B
:1009F80087120716063072020318032D042D0D2DD9
:100A0800043072020318092D0A2D0C2D87110D2DA3
:100A1800871504307206031D122D132D142D85160B
:100A280083120313140872049400831603138C11A1
:100A38008312031314128316031314139413080058
:100A4800F20008307206031D2A2D2B2D302D831637
:100A580003130F168F160F1704307206031D352D5A
:100A6800362D3B2D831603130F128F160F170230E6
:100A78007206031D402D412D462D831603130F16B4
:100A88008F120F177203031D4A2D4B2D502D8316FD
:100A980003130F128F120F17831603130F14080076
:100AA80005308A000408840A82070034533431343C
:100AB8003A342034203420342034533432343A3415
:100AC800203420342034533433343A3400344A3414
:100AD8006F34733465342034533461346E34743471
:100AE80069347A346F34003448346F346C34613488
:100AF800003443340034F6008312031388150812B7
:100B0800F501972D7508760784000A128A11542575
:100B18000A128A110A128A116F240A128A110130E4
:100B2800F4007408F5077508760784000A128A111C
:100B380054250A128A11003A031DA32DA42D862DCF
:100B48000800831203138811081201300A128A114F
:100B58006F240A128A111A30F500F830F400F40BE9
:100B6800B32DF50BB32D000002300A128A116F2441
:100B78000A128A110800831203138816C730F2007C
:100B8800C52DF20BC42DC82DC92D8312031388124D
:100B98000800F400831203138815081274080A1257
:100BA8008A116F240A128A11080083160313141C71
:100BB800DE2DDF2DD92D83120313130808006400DE
:100BC8008001840A0406031900340406E42D710820
:100BD8008A00700E8300FE0E7E0E0900F200720875
:0C0BE80083120313930008000134003452
:04400E00D420FF3F7C
:00000001FF
