:060000000A128A110C280F
:10000800FE00030EF0000A08F1000A128A116129A5
:100018000A128A110F28FA01FB0183010A128A11B8
:10002800ED2883120313A101F31F1B281C28232882
:10003800F209F309F20A0319F30AA101A10AF51F4B
:10004800262827283028F409F509F40A0319F50A9F
:100058000130F6007608A106A201A3017208730414
:100068000319372838286F28A001A00A462801302C
:100078000310F20DF30DFF3E031D3C280130F6007E
:100088007608A007F31F49284A283B2801300310A7
:10009800A20DA30DFF3E031D4B2873087502031D17
:1000A800572872087402031C5A285B2862287208B1
:1000B800F4027308031CF503F5022214013003103F
:1000C800F30CF20CFF3E031D63280130A002031D50
:1000D8006E286F284A28210803197328742879285C
:1000E800A209A309A20A0319A30A2308F3002208F4
:1000F800F200080083120313A400A501A6018312CD
:10010800031324080F39F80025087707F900790840
:100118008400780880001030F2000030F3002508D1
:100128007707F8007808840000082402F400F50135
:10013800031CF5030A128A1115200A128A11720883
:10014800F900790883120313A4000130A5070318E6
:10015800A60A0030A6072608803AFF0080307F02F2
:10016800031DB82803302502031CBB28BC2883289C
:100178000800F20008307206031DC328C428C928E5
:10018800831603130F168F160F1704307206031DFC
:10019800CE28CF28D428831603130F128F160F17D3
:1001A80002307206031DD928DA28DF2883160313C4
:1001B8000F168F120F177203031DE328E428E9288E
:1001C800831603130F128F120F17831603130F14BE
:1001D80008000A128A1115210A128A1183120313C0
:1001E8000711C73083120313A700FA28A70BF928B1
:1001F800FD280A128A1151210A128A118312031347
:10020800A7002708FA007B30A7002708F7007A081C
:100218000A128A117E200A128A11F2280A128A11F9
:100228000C28831603178801890183160313850197
:1002380086018801890183120313850188018901D8
:10024800860183160313071183120313071504305D
:100258000A128A11BD200A128A11F201F301F4016F
:1002680020300A128A113B210A128A110800F5006F
:10027800831603138712751D4229432947297408D9
:10028800940087154B297208740494008711750827
:10029800730483120313940008000A128A115A2166
:1002A8000A128A1183120313130808008316031312
:1002B800141C5F2960295A29080071088A00700EE9
:0802C8008300FE0E7E0E09000A
:04400E00D420FF3F7C
:00000001FF
