:060000000A128A110C280F
:10000800FE00030EF2000A08F3000A128A11E72D17
:100018000A128A110F28F601F701F801F901830184
:100028000A128A11B02C8312031331088039B600E2
:100038003608BB003108B6003607B7003708C100DC
:10004800B01F2728282829284114410803192D28DA
:100058002E283D28410A031D322833283B2800302A
:10006800B1000030B0000030AF000030AE00B01773
:1000780045280030B1000030B0000030AF0000303B
:10008800AE0035088039B6003608BB063508B6001C
:100098003607B7003708BC00B41F53285428552822
:1000A8003C143C08031959285A2869283C0A031D9E
:1000B8005E285F2867280030B5000030B4000030A3
:1000C800B3000030B200B41771280030B50000301A
:1000D800B4000030B3000030B2003C0803197528A2
:1000E80076287B284108031D7A287B28842800303D
:1000F800B1000030B0000030AF000030AE00772B08
:100108002E08B6003608F40034080A128A1111269F
:100118000A128A11750883120313C7007408C600EF
:100128004608B600B701B801B9013908C000380857
:10013800BF003708BE003608BD004708B600B70143
:10014800B801B9013908C5003808C4003708C30028
:100158003608C2002F08B6003608F40033080A1221
:100168008A1111260A128A11750883120313C7000F
:100178007408C6004608B600B701B801B9013608C8
:10018800BD07370803110318013E0319CC28BE0721
:10019800380803110318013E0319D328BF0739088B
:1001A80003110318013E0319DA28C0074708B600EF
:1001B800B701B801B9013608C20737080311031897
:1001C800013E0319E828C307380803110318013E44
:1001D8000319EF28C407390803110318013E03194E
:1001E800F628C5073008B6003608F40032080A12A7
:1001F8008A1111260A128A11750883120313C7007F
:100208007408C6004608B600B701B801B901360837
:10021800BD07370803110318013E03191429BE0747
:10022800380803110318013E03191B29BF073908B1
:1002380003110318013E03192229C0074708B60015
:10024800B701B801B9013608C20737080311031806
:10025800013E03193029C307380803110318013E6A
:1002680003193729C407390803110318013E031974
:100278003E29C5070830B6000310BD0DBE0DBF0DE1
:10028800C00DB60B40292F08B6003608F400320816
:100298000A128A1111260A128A1175088312031389
:1002A800C7007408C6004608B6004708B700B8017A
:1002B800B9013608BD07370803110318013E0319B1
:1002C8006629BE07380803110318013E03196D2972
:1002D800BF07390803110318013E03197429C00721
:1002E8002E08B6003608F40033080A128A111126BF
:1002F8000A128A11750883120313C7007408C6000E
:100308004608B6004708B700B801B9013608BD0766
:10031800370803110318013E03199329BE0738084B
:1003280003110318013E03199A29BF07390803115D
:100338000318013E0319A129C0070830B6000310AD
:10034800BD0DBE0DBF0DC00DB60BA3292E08B600FE
:100358003608F40032080A128A1111260A128A1184
:10036800750883120313C7007408C6004608B60050
:100378004708B700B801B9013608BD0737080311A7
:100388000318013E0319C929BE07380803110318C9
:10039800013E0319D029BF07390803110318013E8C
:1003A8000319D729C0072F08B6003608F400340807
:1003B8000A128A1111260A128A1175088312031368
:1003C800C7007408C6004608B6004708B700B80159
:1003D800B9013608C207370803110318013E03198B
:1003E800F629C307380803110318013E0319FD292C
:1003F800C407390803110318013E0319042AC50765
:100408003008B6003608F40033080A128A1111269B
:100418000A128A11750883120313C7007408C600EC
:100428004608B6004708B700B801B9013608C20740
:10043800370803110318013E0319232AC307380894
:1004480003110318013E03192A2AC40739080311A6
:100458000318013E0319312AC5073008B6003608CB
:10046800F40034080A128A1111260A128A11750832
:1004780083120313C7007408C6004608B60047086D
:10048800B700B801B90108300310B60DB70DB80DA3
:10049800B90DFF3E031D482A3608C2073708031165
:1004A8000318013E0319592AC30738080311031812
:1004B800013E0319602AC407390803110318013ED5
:1004C8000319672AC5073D08B6003E08B7003F086C
:1004D800B8004008B90018300310B90CB80CB70CB4
:1004E800B60CFF3E031D702A3608C20737080311F1
:1004F8000318013E0319812AC3073808031103189A
:10050800013E0319882AC407390803110318013E5C
:1005180003198F2AC5070830B6000310BD0DBE0D9C
:10052800BF0DC00DB60B912A41083C07B600B701B4
:10053800B70D3608823EC60037080318013EFF3E55
:10054800C700C32A0130B6000310C20DC30DC40D85
:10055800C50DB60BA82AC01FB22AB32AB42A421462
:100568000130B6000310BD0DBE0DBF0DC00DB60B9A
:10057800B62AFF30C6070318C70AFF30C707C41FCB
:10058800C62AC72AA62ABC01C01FCB2ACC2AE82A19
:10059800FF303D05B600FF303E05B700FF303F0590
:1005A800B8007F304005B9003908380437043604EC
:1005B8000319DF2AE02AE32ABC01BC0AE82A421C04
:1005C800E62AE72AE82AE02A3C080319EC2AED2A59
:1005D8001E2B0130C207003003180130C30700305A
:1005E80003180130C407003003180130C507451C43
:1005F800FE2AFF2A1E2B4208B6004308B70044080B
:10060800B8004508B9000130BA00390DB90CB80C6A
:10061800B70CB60CBA0B092B3908C5003808C4004A
:100628003708C3003608C2000130C6070318C70AD6
:100638000030C7074708803AFF0080307F02031D5B
:10064800272BFF304602031C2A2B2B2B362B7F30FF
:1006580083120313C5008030C4000030C30000308B
:10066800C2006B2B831203134708803AFF008030C7
:100678007F02031D412B013046020318442B452BF2
:10068800512B003083120313C5000030C400003022
:10069800C3000030C200BB016B2B83120313460852
:1006A800B6003608C100FF30C205FF30C3057F30F1
:1006B800C4050030C505411C622B632B642BC4178D
:1006C8004108B6000310360CB7003708C5003B08D0
:1006D800B6003608C5044508B1004408B000430810
:1006E800AF004208AE00080083120313A8002808D0
:1006F80003197F2B802B942BA31F832B842B942BE4
:100708002009AA002109AB002209AC002309AD0089
:10071800AA0A0319AB0A0319AC0A0319AD0A9C2BE0
:100728002308AD002208AC002108AB002008AA006D
:100738002308220421042004031DA32BA42BAD2B82
:100748000030A3000030A2000030A1000030A0005B
:10075800332C9630A4002408A900BF2B0130A40034
:100768002408A90701300310AD0CAC0CAB0CAA0C83
:10077800FF3E031DB72BFE302D05031DC42BC52BD3
:10078800B22BE12B0130A4002408A9070130AA07E5
:10079800003003180130AB07003003180130AC07F4
:1007A800003003180130AD0701300310AD0CAC0C5C
:1007B800AB0CAA0CFF3E031DD92BFF302D05031DE2
:1007C800E62BE72BC62BF32B0130A9020130A4003E
:1007D8000310AA0DAB0DAC0DAD0DA40BEC2BAC1B8F
:1007E800F62BF72BFD2B023029020318FC2BFD2BCF
:1007F800E82B2918002C012C092CFF30AA05FF3002
:10080800AB057F30AC05FF30AD050310A90C2908F6
:10081800A400A501A601A70118300310A40DA50D79
:10082800A60DA70DFF3E031D112C2408AA042508B8
:10083800AB042608AC042708AD0428080319252CA6
:10084800262C2B2CA31F292C2A2C2B2CAD172D083A
:10085800A3002C08A2002B08A1002A08A000080069
:100868000310831203134A0D4B0DCC004C08D20021
:100878005208031D402C412C4A2C0030CB0000307C
:10088800CA000030C9000030C800AF2C4808CC00AE
:100898004908CD004A08CE004B08CF001F3003108E
:1008A800CF0CCE0CCD0CCC0CFF3E031D532C4C08AA
:1008B800D0005008D100CA17FF30C805FF30C9055D
:1008C800FF30CA050030CB059630D202D21F6D2CFE
:1008D8006E2C882C5208803A973E0318742C752C7D
:1008E800762C412C01300310CB0CCA0CC90CC80C57
:1008F800FF3E031D772C0130CC004C08D207031DA6
:10090800862C872C762C9F2C20305202031C8D2C91
:100918008E2C9A2C412C0130CC000310C80DC90D27
:10092800CA0DCB0DCC0B912C0130D2025208031DFD
:100938009E2C9F2C8F2C51080319A32CA42CAF2C70
:10094800C809C909CA09CB09C80A0319C90A031978
:10095800CA0A0319CB0A08000A128A1127250A12A3
:100968008A11831203139F14F7010A128A11B925F9
:100978000A128A11790883120313D300D401D5010E
:10098800D6015608A3005508A2005408A100530830
:10099800A00001300A128A1178230A128A118312E0
:1009A80003132308B5002208B4002108B300200867
:1009B800B2003F30B100F930B0005930AF00C43058
:1009C800AE000A128A1117200A128A118312031321
:1009D8003108CB003008CA002F08C9002E08C8000B
:1009E8000A128A1134240A128A118312031348083E
:1009F800D7005708F600183076020318042D052D85
:100A0800092D091589100910B92C19307602031C13
:100A18000E2D0F2D192D1B3076020318142D152DB0
:100A2800192D891409110910B92C1C307602031CE0
:100A38001E2D1F2D232D891009110914B92CB92C2D
:100A48000A128A110C2803308316031788008901BB
:100A580003308316031385008601880189018312F8
:100A6800031388018901860104300A128A115B2563
:100A78000A128A110030F400F5000A128A11582669
:100A88000A128A1104300A128A118B250A128A1155
:100A98008B170B17831203130C13831603130C17EE
:100AA800831203138C11831603138C150800F400AA
:100AB80008307406031D612D622D672D83160313FC
:100AC8000F168F160F1704307406031D6C2D6D2D2D
:100AD800722D831603130F128F160F170230740628
:100AE800031D772D782D7D2D831603130F168F1276
:100AF8000F177403031D812D822D872D8316031371
:100B08000F128F120F17831603130F140800F40027
:100B180083160313940183120313940194129416F9
:100B280083160313871207160630740203189D2DC7
:100B38009E2DA72D043074020318A32DA42DA62DD5
:100B48008711A72D871504307406031DAC2DAD2D14
:100B5800AE2D85168312031314087404940014121E
:100B680083160313141394130800831203139F1896
:100B7800BE2DBF2DE62D1F0CF400740C0F39013A61
:100B8800031DC72DC82DD02DC3309F051030F4008C
:100B9800F40BCC2D0000DE2D1F0CF400740C0F3963
:100BA800003A031DD82DD92DDE2D1F08C33904386E
:100BB8009F00CA2D1030F400F40BE02D00008312C2
:100BC80003139F140800831203138C1DEC2DED2DC5
:100BD800FE2D0A128A1175260A128A11F10071086F
:100BE800F70079080A128A117F260A128A118312DD
:100BF80003138C110C1F012E022E0A2E0A128A11C1
:100C08003A260A128A11831203130C1373088A00F6
:100C1800720E8300FE0E7E0E090083120313A600D7
:100C2800A201A3017408A000A1012008A4002108C2
:100C3800A500261C202E212E272E2408A2070318E3
:100C4800A30A2508A30701300310A40DA50DFF3E34
:100C5800031D282E0310A60C2608031D342E352E3E
:100C68001D2E2308F5002208F40008008312031340
:100C78001F0CF000700C0F39003A031D442E452E4E
:100C88004A2E1E08F0007008F900572E1F0CF000BD
:100C9800700C0F39013A031D522E532E572E1E0881
:100CA800F0007008F8000800831603139F131F1242
:100CB8009F12831203131F083F3940389F0074089E
:100CC800A000A00DA00D1F082006C33920069F0014
:100CD8001F140F3083120313A000A00B712E742E63
:100CE800080083160313141C7A2E7B2E752E83128C
:100CF800031313080800F00070088312031393000D
:020D08000800E1
:04400E00D420FF3F7C
:00000001FF
