:060000000A128A110C280F
:10000800FE00030EF1000A08F2000A128A112F29D5
:100018000A128A110F28F701F801F90183010A125F
:100028008A11D128F30008307306031D1C281D28E7
:100038002228831603130F168F160F170430730622
:10004800031D272828282D28831603130F128F161F
:100058000F1702307306031D3228332838288316F9
:1000680003130F168F120F177303031D3C283D2827
:100078004228831603130F128F120F1783160313C8
:100088000F140800F30083120313941294168316B6
:1000980003138712071606307302031854285528CD
:1000A8005E280430730203185A285B285D288711DC
:1000B8005E28871504307306031D632864286528A5
:1000C800851683120313140873049400831603130C
:1000D8008C11831203131412831603131417941329
:1000E800080003308316031788008901033083163C
:1000F800031385008601880189018312031388018F
:100108008901860104300A128A1116200A128A11FE
:100118000030F300F4000A128A1114210A128A111D
:1001280004300A128A1146200A128A118B170B17FB
:10013800831203130C13831603130C17080083127E
:1001480003139F18A828A928D0281F0CF300730CA4
:100158000F39013A031DB128B228BA28C3309F05C8
:100168001030F300F30BB6280000C8281F0CF3006A
:10017800730C0F39003A031DC228C328C8281F086A
:10018800C33904389F00B4281030F300F30BCA2891
:100198000000831203139F1408000A128A117520A5
:1001A8000A128A11831203139F14F7010A128A1183
:1001B800A3200A128A110A128A1144210A128A11EA
:1001C800F6007608F7007703031DEB28EC28DA28F9
:1001D80079080A128A114E210A128A11DA280A129B
:1001E8008A110C28831203131F0CF000700C0F39AE
:1001F800003A031D0029012906291E08F00070088D
:10020800F90013291F0CF000700C0F39013A031D77
:100218000E290F2913291E08F0007008F80008009D
:10022800831603139F131F129F12831203131F08B1
:100238003F3940389F007308F500F50DF50D1F088C
:100248007506C33975069F001F141030F500F50BAD
:100258002B2900000800831203130C1F34293529A9
:100268003D290A128A11F6200A128A1183120313F1
:100278000C1372088A00710E8300FE0E7E0E0900B0
:1002880083160313141C49294A294429831203138A
:1002980013080800F300730883120313930008007F
:04400E00D420FF3F7C
:00000001FF
