:060000000A128A110C280F
:10000800FE00030EF1000A08F2000A128A11B42851
:100018000A128A110F28F601F701F801F901FA010D
:1000280083010A128A112C290130831603178800CC
:10003800890101308316031385008601880189012F
:100048008312031388018901860183160313851619
:1000580004300A128A1158200A128A110030F3005B
:10006800F4000A128A1112210A128A11F301F4010A
:10007800F50124300A128A11D6200A128A118B1728
:100088000B17831203138C11831603138C15831219
:1000980003130C13831603130C17831203138C1208
:1000A800831603138C160800F30008307306031D2B
:1000B8005E285F286428831603130F168F160F1700
:1000C80004307306031D69286A286F2883160313F2
:1000D8000F128F160F1702307306031D7428752828
:1000E8007A28831603130F168F120F177303031D35
:1000F8007E287F288428831603130F128F120F1768
:10010800831603130F140800831203139F188D28F6
:100118008E28B3281F0CF300730C0F39013A031D06
:10012800962897289E28C3309F052130F300F30BAB
:100138009B28AC281F0CF300730C0F39003A031DE1
:10014800A628A728AC281F08C33904389F00992877
:100158002130F300F30BAE28831203139F14080019
:10016800831203138C1DB928BA28C3287A080A12E7
:100178008A113D210A128A11831203138C110C1F54
:10018800C628C728CF280A128A11F4200A128A1111
:10019800831203130C1372088A00710E8300FE0E7B
:1001A8007E0E090083120313A0008316031387121F
:1001B80083120313201DE128E228E8287508831616
:1001C800031394008715EE28730875048316031328
:1001D8009400871183120313200874049400080004
:1001E800831203131F0CF000700C0F39003A031D23
:1001F800FE28FF2804291E08F0007008FA001129BB
:100208001F0CF000700C0F39013A031D0C290D2941
:1002180011291E08F0007008F9000800831603135E
:100228009F131F129F12831203131F083F39403870
:100238009F007308F500F50DF50D1F087506C33905
:1002480075069F001F142130F500F50B29290800B9
:100258000A128A1118200A128A11831203131F081E
:100268000A128A1188200A128A1134290A128A115C
:0E0278000C28F0007008831203139300080096
:04400E00D420FF3F7C
:00000001FF
