:060000000A128A110C280F
:10000800FE00030EF1000A08F2000A128A112129E3
:100018000A128A110F28F601F701F80183010A1262
:100028008A110B29F3008316031394018312031317
:100038009401941294168316031387120716063038
:100048007302031828282928322804307302031859
:100058002E282F2831288711322887150430730657
:10006800031D3728382839288516831203131408E6
:1000780073049400831603138C1183120313141250
:1000880083160313141394130800F300083073063F
:10009800031D4F2850285528831603130F168F1653
:1000A8000F1704307306031D5A285B28602883162F
:1000B80003130F128F160F1702307306031D6528DE
:1000C80066286B28831603130F168F120F177303F6
:1000D800031D6F2870287528831603130F128F12BB
:1000E8000F17831603130F14080003308316031722
:1000F800880089010330831603138500860188016F
:1001080089018312031388018901860104300A12C8
:100118008A1149200A128A110030F300F4000A12E9
:100128008A11D5200A128A1104300A128A1116205F
:100138000A128A118B170B17831203130C138316D9
:1001480003130C170800831203139F18AC28AD285B
:10015800D4281F0CF300730C0F39013A031DB5287E
:10016800B628BE28C3309F051030F300F30BBA2819
:100178000000CC281F0CF300730C0F39003A031D44
:10018800C628C728CC281F08C33904389F00B828B8
:100198001030F300F30BCE280000831203139F14D2
:1001A8000800831603139F131F129F128312031351
:1001B8001F083F3940389F007308F500F50DF50D0D
:1001C8001F087506C33975069F001F141030F50007
:1001D800F50BEC2800000800831203131F0CF00035
:1001E800700C0F39003A031DFA28FB2800291E0855
:1001F800F0007008F8000A291F0CF000700C0F3985
:10020800013A031D082909290A29FB2808000A12AE
:100218008A1179200A128A11831203139F14F60196
:100228000A128A11A7200A128A1178088312031366
:10023800860014290A128A110C28831203130C1F32
:10024800262927292F290A128A11F0200A128A1131
:10025800831203130C1372088A00710E8300FE0EBA
:040268007E0E0900FD
:04400E00D420FF3F7C
:00000001FF
