:060000000A128A110C280F
:10000800FE00030EF1000A08F2000A128A11B22853
:100018000A128A110F28F601F701F801F901FA010D
:1000280083010A128A112B290130831603178800CD
:100038008901013083160313850086018801870131
:1000480089018312031388018701890186018316B8
:100058000313851604300A128A1154200A128A11D1
:100068000030F300F4000A128A1110210A128A11D2
:10007800F301F401F50124300A128A11D4200A127E
:100088008A118B170B17831203138C118316031312
:100098008C15831203130C13831603130C17080013
:1000A800F30008307306031D5A285B28602883165E
:1000B80003130F168F160F1704307306031D6528D8
:1000C80066286B28831603130F128F160F1702303A
:1000D8007306031D702871287628831603130F16DC
:1000E8008F120F177303031D7A287B288028831625
:1000F80003130F128F120F17831603130F14080020
:10010800831203139F1889288A28B1281F0CF3002B
:10011800730C0F39013A031D922893289B28C3308A
:100128009F051030F300F30B97280000A9281F0C37
:10013800F300730C0F39003A031DA328A428A9283B
:100148001F08C33904389F0095281030F300F30BBB
:10015800AB280000831203139F14080083120313B3
:100168008C1DB728B828C1287A080A128A113C21A0
:100178000A128A11831203138C110C1FC428C52874
:10018800CD280A128A11F2200A128A118312031347
:100198000C1372088A00710E8300FE0E7E0E090091
:1001A80083120313A0008316031387128312031309
:1001B800201DDF28E028E62875088316031394001D
:1001C8008715EC28730875048316031394008711A8
:1001D8008312031320087404940008008312031385
:1001E8001F0CF000700C0F39003A031DFC28FD2885
:1001F80002291E08F0007008FA000F291F0CF000F1
:10020800700C0F39013A031D0A290B290F291E0802
:10021800F0007008F9000800831603139F131F12DB
:100228009F12831203131F083F3940389F00730839
:10023800F500F50DF50D1F087506C33975069F0005
:100248001F141030F500F50B2729000008000A12CA
:100258008A1118200A128A11831203139F140A1292
:100268008A1184200A128A1133290A128A110C2849
:0C027800F00070088312031393000800CC
:04400E00D420FF3F7C
:00000001FF
