:060000000A128A110C280F
:10000800FE00030EF8000A08F9000A128A11C02837
:100018000A128A110F28F001F101F201F301F4012B
:10002800F50183010A128A11432901308316031747
:100038008800890101308316031385008601880131
:1000480087018901831203138801870189018601C9
:1000580083160313851604300A128A1159200A12CE
:100068008A11003083120313A000A1000A128A111A
:1000780026210A128A1183120313A001A101A201E9
:1000880024300A128A11EA200A128A118B170B17D8
:10009800831203138C11831603138C158312031315
:1000A8000C13831603130C17080083120313A00004
:1000B80008302006031D6128622867288316031369
:1000C8000F168F160F17043083122006031D6D2894
:1000D8006E287328831603130F128F160F1702301A
:1000E80083122006031D79287A287F288316031394
:1000F8000F168F120F1783122003031D84288528DB
:100108008A28831603130F128F120F1783160313EF
:100118000F140800831203139F1893289428BF28EC
:100128001F0CA000200C0F39013A031D9C289D28A4
:10013800A728C3309F050F3083120313A000A00B1C
:10014800A328A628B5281F0CA000200C0F39003AB8
:10015800031DAF28B028B5281F08C33904389F00ED
:100168009F280F3083120313A000A00BB928BC28C6
:10017800831203139F140800831203138C1DC528D0
:10018800C628D7280A128A1154210A128A11F700A0
:100198007708F00075080A128A1164210A128A1178
:1001A800831203138C110C1FDA28DB28E3280A12A8
:1001B8008A1108210A128A11831203130C13790871
:1001C8008A00780E8300FE0E7E0E09008312031348
:1001D800A30083160313871283120313231DF52824
:1001E800F628FC2822088316031394008715022991
:1001F8002008220483160313940087118312031323
:100208002308210494000800831203131F0CF6002E
:10021800760C0F39003A031D1229132918291E08D4
:10022800F6007608F50025291F0CF600760C0F3924
:10023800013A031D2029212925291E08F6007608E0
:10024800F4000800831603139F131F129F128312D2
:1002580003131F083F3940389F002008A200A20D51
:10026800A20D1F082206C33922069F001F140F3053
:1002780083120313A200A20B3F29422908000A1285
:100288008A1119200A128A11831203139F140A1261
:100298008A118E200A128A114B290A128A110C28F7
:1002A8000A128A115D210A128A1183120313130894
:1002B800080083160313141C622963295D290800AA
:0C02C800F6007608831203139300080070
:04400E00D420FF3F7C
:00000001FF
