:060000000A128A11FB2F19
:100EB80083160317880189018316031385018601A8
:100EC8000C30880089018312031389018801850188
:100ED800860104300A128A11CB270A128A110430BB
:100EE8000A128A119C270A128A1108000A128A110A
:100EF8005C270A128A11F20183120313081D852F39
:100F0800862F8C2F0819892F8A2F862F0130860269
:100F1800881D8F2F902F802F8819932F942F902F13
:100F28000130F10071088607802F0A128A11002803
:100F3800F000831203139412941683160313871276
:100F48000716063070020318AA2FAB2FB42F0430EF
:100F580070020318B02FB12FB32F8711B42F871544
:100F680004307006031DB92FBA2FBB2F85168312C4
:100F78000313140870049400831603138C1183124E
:100F88000313141283160313141794130800F000A4
:100F980008307006031DD12FD22FD72F83160313C5
:100FA8000F168F160F1704307006031DDC2FDD2F68
:100FB800E22F831603130F128F160F1702307006D5
:100FC800031DE72FE82FED2F831603130F168F123B
:100FD8000F177003031DF12FF22FF72F831603133A
:100FE8000F128F120F17831603130F140800F20144
:080FF80083010A128A117A2F0D
:04400E00D420FF3F7C
:00000001FF
