:060000000A128A11FB2F19
:100E7800F00070088312031393000800831603130D
:100E8800141C472F482F422F8312031313080800FE
:100E980083160317880189018316031385018601C8
:100EA80088010630890083120313880189018601AD
:100EB80004300A128A1198270A128A1104300A1279
:100EC8008A1169270A128A110800F0008312031395
:100ED80094129416831603138712071606307002AD
:100EE8000318772F782F812F0430700203187D2F75
:100EF8007E2F802F8711812F871504307006031DE0
:100F0800862F872F882F85168312031314087004E1
:100F18009400831603138C1183120313141283167F
:100F28000313141794130800F00008307006031D0B
:100F38009E2F9F2FA42F831603130F168F160F179C
:100F480004307006031DA92FAA2FAF2F8316031391
:100F58000F128F160F1702307006031DB42FB52F0E
:100F6800BA2F831603130F168F120F177003031D62
:100F7800BE2FBF2FC42F831603130F128F120F1704
:100F8800831603130F1408000A128A114C270A1239
:100F98008A11F20183120313091DD32FD42FDB2FDB
:100FA8000919D72FD82FD42F01308602E72F891D92
:100FB800DE2FDF2FE72F8919E22FE32FDF2F0130F4
:100FC800F100710886070A128A1142270A128A114B
:100FD800F1007108F2008312031306080A128A113D
:100FE8003C270A128A11CE2F0A128A110028F20110
:080FF80083010A128A11C82FBF
:04400E00D420FF3F7C
:00000001FF
