:060000000A128A110C280F
:10000800FE00030EF2000A08F3000A128A11BD2846
:100018000A128A110F28F601F70183010A128A11C0
:100028009928F40008307406031D1B281C28212871
:10003800831603130F168F160F1704307406031D4B
:10004800262827282C28831603130F128F160F171C
:1000580002307406031D312832283728831603130B
:100068000F168F120F177403031D3B283C284128D5
:10007800831603130F128F120F17831603130F140F
:100088000800F400831603139401831203139401E8
:1000980094129416831603138712071606307402F7
:1000A80003185728582861280430740203185D285B
:1000B8005E28602887116128871504307406031D9F
:1000C80066286728682885168312031314087404A1
:1000D800940014128316031314179413080083163C
:1000E80003178801890183160313850186010C30E3
:1000F800880089018312031389018801850186011B
:1001080004300A128A1115200A128A1104300A12C0
:100118008A1145200A128A118B170B1783120313B1
:100128008C11831603138C1508000A128A11732088
:100138000A128A11F70183120313081DA428A5289F
:10014800AB280819A828A928A5280130F602881D77
:10015800AE28AF28B7288819B228B328AF280130AD
:10016800F5007508F607760886009F280A128A1196
:100178000C28831203138C1DC228C328D4280A1202
:100188008A11DB200A128A11F1007108F70076083B
:100198000A128A11E5200A128A11831203138C119C
:1001A80073088A00720E8300FE0E7E0E0900831605
:1001B8000313141CE028E128DB2883120313130817
:0E01C8000800F0007008831203139300080073
:04400E00D420FF3F7C
:00000001FF
